:0B08E1001208ECC2A1D2A2C2A3C2A464
:1008EC00E4FDFCC3ED9FEC9E5015E4FBFA0BBB0042
:0F08FC00010ABA04F8BBFBF50DBD00010C80E446
:01090B0022C9
:10088100900000D2A1C2A2C2A3C2A47F0A7E00121C
:1008910008E1C2A1C2A2D2A3C2A41208ECC2A1C2A1
:1008A100A2C2A3D2A41208ECA3E5826464458370BA
:0108B100D274
:0108B2002223
:1008B300900000C2A1C2A2C2A3D2A47F0A7E0012EA
:1008C30008ECC2A1C2A2D2A3C2A41208E1D2A1C25F
:0D08D300A21208E8A3E5826464458370D694
:0108E00022F5
:10080000759850758920758DFDD28ED293D292D273
:1008100091D290C2A4C2A3C2A2C2A13098FDA9994C
:10082000C29889993099FDC299B93102C290B93202
:1008300002D290B93302C291B93402D291B93502D1
:10084000C292B93602D292B93702C293B93802D2F3
:1008500093B93908C293C292C291C290B93008D2FA
:1008600093D292D291D290E964736003B953031288
:100870000881E964616005E96441709F1208B380F2
:010880009ADD
:0300000002090CE6
:0C090C00787FE4F6D8FD75810702080032
:00000001FF
